
{
  "reason": 'processing response error',
  "code": 'SERVER_ERROR',
  "body": `{"jsonrpc":"2.0","id":71,"error":{"code":-32603,"message":"Error: VM Exception while processing transaction: reverted with custom error 'ExternalError(\\"0xe9f07632000000000000000000000000000000000000000000000000000000000000000200000000000000000000000000000000000000000000000000000000000000400000000000000000000000000000000000000000000000000000000000000013437573746f6d204572726f722043617365203300000000000000000000000000\\")'","data":{"message":"Error: VM Exception while processing transaction: reverted with custom error 'ExternalError(\\"0xe9f07632000000000000000000000000000000000000000000000000000000000000000200000000000000000000000000000000000000000000000000000000000000400000000000000000000000000000000000000000000000000000000000000013437573746f6d204572726f722043617365203300000000000000000000000000\\")'","txHash":"0x5b97d7e96a2d18b2f27cee2ec2ec5dc7a78d7329c924c316fa374af2948d9779","data":"0xea7e1b0b00000000000000000000000000000000000000000000000000000000000000200000000000000000000000000000000000000000000000000000000000000084e9f07632000000000000000000000000000000000000000000000000000000000000000200000000000000000000000000000000000000000000000000000000000000400000000000000000000000000000000000000000000000000000000000000013437573746f6d204572726f72204361736520330000000000000000000000000000000000000000000000000000000000000000000000000000000000"}}}`,
  error: Error: Error: VM Exception while processing transaction: reverted with custom error 'ExternalError("0xe9f07632000000000000000000000000000000000000000000000000000000000000000200000000000000000000000000000000000000000000000000000000000000400000000000000000000000000000000000000000000000000000000000000013437573746f6d204572726f722043617365203300000000000000000000000000")'
      at getResult (/Users/choi/Documents/Solidity/node_modules/@ethersproject/providers/src.ts/json-rpc-provider.ts:142:28)
      at processJsonFunc (/Users/choi/Documents/Solidity/node_modules/@ethersproject/web/src.ts/index.ts:383:22)
      at /Users/choi/Documents/Solidity/node_modules/@ethersproject/web/src.ts/index.ts:320:42
      at step (/Users/choi/Documents/Solidity/node_modules/@ethersproject/web/lib/index.js:33:23)
      at Object.next (/Users/choi/Documents/Solidity/node_modules/@ethersproject/web/lib/index.js:14:53)
      at fulfilled (/Users/choi/Documents/Solidity/node_modules/@ethersproject/web/lib/index.js:5:58)
      at processTicksAndRejections (node:internal/process/task_queues:95:5) {
    code: -32603,
    data: {
      message: `Error: VM Exception while processing transaction: reverted with custom error 'ExternalError("0xe9f07632000000000000000000000000000000000000000000000000000000000000000200000000000000000000000000000000000000000000000000000000000000400000000000000000000000000000000000000000000000000000000000000013437573746f6d204572726f722043617365203300000000000000000000000000")'`,
      txHash: '0x5b97d7e96a2d18b2f27cee2ec2ec5dc7a78d7329c924c316fa374af2948d9779',
      data: '0xea7e1b0b00000000000000000000000000000000000000000000000000000000000000200000000000000000000000000000000000000000000000000000000000000084e9f07632000000000000000000000000000000000000000000000000000000000000000200000000000000000000000000000000000000000000000000000000000000400000000000000000000000000000000000000000000000000000000000000013437573746f6d204572726f72204361736520330000000000000000000000000000000000000000000000000000000000000000000000000000000000'
    }
  },
  requestBody: '{"method":"eth_sendRawTransaction","params":["0x02f8f2827a69678459682f008459683b3e830f42409418e317a7d70d8fbf8e6e893616b52390ebbdb62980b88409c5eabe00000000000000000000000000000000000000000000000000000000000000200000000000000000000000000000000000000000000000000000000000000024773acdef000000000000000000000000000000000000000000000000000000000000000200000000000000000000000000000000000000000000000000000000c001a0d0d9c5bfeacd873203eb085fe68fb08a0a3d0df44a56358a701263ad8dc7758ba07a6c82946e060b3d68c69b04469edd5c7b4f3466e7654b24e149a3d365f87f9a"],"id":71,"jsonrpc":"2.0"}',
  requestMethod: 'POST',
  url: 'http://127.0.0.1:8545/',
  transaction: {
    type: 2,
    chainId: 31337,
    nonce: 103,
    maxPriorityFeePerGas: BigNumber { _hex: '0x59682f00', _isBigNumber: true },
    maxFeePerGas: BigNumber { _hex: '0x59683b3e', _isBigNumber: true },
    gasPrice: null,
    gasLimit: BigNumber { _hex: '0x0f4240', _isBigNumber: true },
    to: '0x18E317A7D70d8fBf8e6E893616b52390EbBdb629',
    value: BigNumber { _hex: '0x00', _isBigNumber: true },
    data: '0x09c5eabe00000000000000000000000000000000000000000000000000000000000000200000000000000000000000000000000000000000000000000000000000000024773acdef000000000000000000000000000000000000000000000000000000000000000200000000000000000000000000000000000000000000000000000000',
    accessList: [],
    hash: '0x5b97d7e96a2d18b2f27cee2ec2ec5dc7a78d7329c924c316fa374af2948d9779',
    v: 1,
    r: '0xd0d9c5bfeacd873203eb085fe68fb08a0a3d0df44a56358a701263ad8dc7758b',
    s: '0x7a6c82946e060b3d68c69b04469edd5c7b4f3466e7654b24e149a3d365f87f9a',
    from: '0xf39Fd6e51aad88F6F4ce6aB8827279cffFb92266',
    confirmations: 0
  },
  transactionHash: '0x5b97d7e96a2d18b2f27cee2ec2ec5dc7a78d7329c924c316fa374af2948d9779'
}
